:020000040800F2
:10000000A01E0020F1010008775E0008615300087F
:10001000755E0008F50B0008CF81000800000000A5
:10002000000000000000000000000000576600080B
:10003000952B0008000000008D610008596600083B
:100040000B0200080B0200080B020008696400089C
:100050000B0200080B020008992B00080B02000895
:10006000CD2B00080B0200080B0200080B02000851
:100070000B0200080B0200080B0200080B0200082C
:100080000B0200080B0200080B0200080B0200081C
:10009000ED8000080B0200080B020008492C000844
:1000A0000B0200080B0200080B0200080B020008FC
:1000B0000B020008D96600080B0200080B020008BA
:1000C0000B0200080B0200080B0200080B020008DC
:1000D0000B0200080B0200080B0200080B020008CC
:1000E0000B020008916100080B02000800F002F802
:1000F00000F06EF80AA090E8000C82448344AAF154
:100100000107DA4501D100F063F8AFF2090EBAE851
:100110000F0013F0010F18BFFB1A43F0010318473B
:1001200084940000A49400000A444FF0000C10F8DE
:10013000013B13F0070408BF10F8014B1D1108BF65
:1001400010F8015B641E05D010F8016B641E01F805
:10015000016BF9D113F0080F1EBF10F8014BAD1C55
:100160000C1B09D16D1E58BF01F801CBFAD505E073
:1001700014F8016B01F8016B6D1EF9D59142D6D3CD
:10018000704700000023002400250026103A28BFF5
:1001900078C1FBD8520728BF30C148BF0B607047F9
:1001A000642900F07980752900F07680782900F0C4
:1001B000AF80002070471FB500F0A6FB04000020B0
:1001C000002108F0D9FC401C60601FBD10B510BDB7
:1001D00000F075FB1146FFF7EEFF08F061FA00F042
:1001E000A5FB03B4FFF7F2FF03BC08F001F8000021
:1001F0000948804709480047FEE7FEE7FEE7FEE7BB
:10020000FEE7FEE7FEE7FEE7FEE7FEE704480549F6
:10021000054A064B70470000D5660008ED0000084F
:10022000A0160020A01E0020A01A0020A01A002066
:100230007047B2F120030AD5C2F1200320FA02F080
:1002400001FA03F321FA02F140EA0300704721FAB0
:1002500003F04FF0000170470FB4044910B503AA32
:10026000029800F083FA10BC5DF814FB0000002037
:100270000FB41CB5074B06AA7B446946009005984D
:1002800000F05BFA0020694600F06AFA1CBC5DF8D9
:1002900014FB0000E50400002DE9F04106460024AF
:1002A00010687529314616A510D0AFF300800028DC
:1002B00002DA404213A507E031688A0701D512A58A
:1002C00002E0490704D511A5012401E0AFF3008045
:1002D00000210A2206F1240709E0B0FBF2FCB0FB82
:1002E000F2F302FB1C00303078541846491C0028F9
:1002F000F3D123462A463046BDE8F04100F0BEB9AE
:10030000000000002D0000002B0000002000000075
:1003100070B504460D4621461068AFF30080218871
:10032000090502D50F4A7A4402E00E4A7A440E3299
:10033000002104F1240305E000F00F060009965D9A
:100340005E54491C0028F7D120780023000704D50B
:10035000702D02D009B1022311322046BDE8704051
:1003600000F08CB99E8800002DE9F0410F4604464C
:100370000020DFF88480F84420622046E168884746
:1003800090B3252806D0D4E901219047206A401C6B
:100390002062F2E700252046E168884720280646CB
:1003A00008DB312E06D208EB060010F8200C08B14D
:1003B0000543F0E7A80701D525F00405A6B1A6F18D
:1003C0004100192802D8203645F400653A463146E6
:1003D00020462560FFF7E4FE48B1012805D0FF1D47
:1003E00027F007070837C8E703E03F1DC5E7304699
:1003F000C9E7206ABDE8F0817688000070B506463E
:1004000000F038F90468054630460A22002100F061
:10041000BFF92C6070BD10B5431C02E010F8011B41
:1004200071B18107FAD14FF0013202C88C1A8C43A6
:1004300014EAC211F9D0C01A0A0603D0C01E10BDBA
:10044000C01A10BD0A0401D0801E10BD0902FCD0E4
:10045000401E10BD40EA010370B59B072ED14FF03E
:100460000136042A2AD308C810C99D1B9D43121FB8
:1004700015EAC61517D0D8B2E1B2401A50EA0561A4
:1004800010D198B2A1B2401A50EA05410AD123F026
:100490007F4024F07F41401A50EA052102D1180E16
:1004A000A0EB146070BDA342DBD018BA21BA884219
:1004B00001D9012070BD4FF0FF3070BD0AB9002096
:1004C00070BD10F8013B11F8014B63B1A3420AD192
:1004D000521E08D010F8013B11F8014B1BB1A3428A
:1004E00001D1521EEDD1181B70BD032A40F230809D
:1004F00010F0030C00F0158011F8013BBCF1020F65
:10050000624498BF11F801CB00F8013B38BF11F8E5
:10051000013BA2F1040298BF00F801CB38BF00F8FC
:10052000013B11F0030300F02580083AC0F0088079
:1005300051F8043B083A51F804CBA0E80810F5E75D
:10054000121D5CBF51F8043B40F8043BAFF3008040
:10055000D20724BF11F8013B11F801CB48BF11F8B5
:10056000012B24BF00F8013B00F801CB48BF00F885
:10057000012B704710B5203AC0F00B80B1E818503D
:10058000203AA0E81850B1E81850A0E81850BFF47D
:10059000F5AF5FEA027C24BFB1E81850A0E818501C
:1005A00044BF18C918C0BDE810405FEA827C24BF70
:1005B00051F8043B40F8043B08BF7047D20728BFFE
:1005C00031F8023B48BF11F8012B28BF20F8023B4D
:1005D00048BF00F8012B70474FF000020429C0F01B
:1005E000128010F0030C00F01B80CCF1040CBCF165
:1005F000020F18BF00F8012BA8BF20F8022BA1EBB7
:100600000C0100F00DB85FEAC17C24BF00F8012B9B
:1006100000F8012B48BF00F8012B70474FF0000293
:1006200000B5134694469646203922BFA0E80C50E8
:10063000A0E80C50B1F12001BFF4F7AF090728BFC3
:10064000A0E80C5048BF0CC05DF804EB890028BF3F
:1006500040F8042B08BF704748BF20F8022B11F068
:10066000804F18BF00F8012B7047704770477047E4
:100670007047000000487047401600202DE9F04701
:100680000D4699469246044600F124080168880602
:1006900004D5E06921F01001216000E00120A842AA
:1006A00001DD471B00E00027A1697A1902EB090070
:1006B000081AA0612078C00602D42046AFF300805B
:1006C000002608E0D4E901211AF806009047206AC4
:1006D000401C761C20624E45F4DB2078C0060AD50B
:1006E0002046AFF3008006E0D4E901213020904796
:1006F000206A401C2062381EA7F10107F4DC07E0E5
:10070000D4E9012118F805009047206A401C2062B6
:10071000281EA5F10105F3DC2046AFF30080207808
:10072000000602D50220BDE8F0870120FBE70000AB
:1007300001694A1C02610878704700B58FB0CDE9A5
:1007400001310021059105497944CDE90310114695
:100750006846FFF709FE0FB000BD0000E5FFFFFF90
:100760000A6802F8010B0A6070470000074B70B579
:100770000D467B44FFF7E1FF0446284600F09BF856
:1007800010B14FF0FF3070BD204670BD277E0000D5
:100790002DE9F04791460F4680460446002614F89E
:1007A000015B2DB100F030F80068405DC007F6D164
:1007B0002B2D02D02D2D18D0641E4A4639462046D6
:1007C00000F02AF827B13968A14201D1C7F80080AA
:1007D0004FF0020471050BD54042002803DDFFF7FE
:1007E00049FF0460A007BDE8F08746F48066E4E7AF
:1007F0000028F8DAFFF73EFF04606FF00040F2E7F0
:10080000004870474016002010B500F07DF8001D2C
:1008100010BD00BF658300002DE9F05F82461546DC
:100820008B4600270AF10104B9460078302801D030
:100830009DB113E014F8010B0127782803D0582844
:1008400001D045B10AE00DB1102D07D1002714F8F1
:10085000010B102502E0082500E00A250026B0461D
:100860000EE005FB080005FB06F101271FFA80F8E2
:1008700001EB1046B6F5803F00D3B94614F8010BE2
:10088000294600F045F80028EBDABBF1000F05D04F
:100890000FB1641E00E05446CBF80040B9F1000FE0
:1008A00006D0FFF7E7FE02210160C81EBDE8F09FF9
:1008B00048EA0640FAE7007B00F080007047754682
:1008C000FFF79EFFAE4605006946534620F007003D
:1008D000854618B020B5FFF799FCBDE820404FF0E1
:1008E00000064FF000074FF000084FF0000B21F01A
:1008F0000701AC46ACE8C009ACE8C009ACE8C009E7
:10090000ACE8C0098D46704700487047601600206B
:100910003A2800D2303820F02002412A01D3A2F137
:100920003700884201D34FF0FF3070470446AFF3E1
:1009300000802046FFF755FC4FF0013C50F8042B97
:1009400051F8043B9A4221D1A2EB0C03934313EAE2
:10095000CC1317D150F8042B51F8043B9A4215D10F
:10096000A2EB0C03934313EACC130BD150F8042BE6
:1009700051F8043B9A4209D1A2EB0C03934313EACA
:10098000CC13DBD04FF00000704700BFD01A01BA83
:10099000B1FA81F101F0180122FA01F0CB40C1F166
:1009A0002001DBB2C0B2C01A2CFA01F3D11A914374
:1009B00011EAC311E6D170472DE9FC5F99469246D2
:1009C0008B46804600274A4C149E48E049A0FFF71A
:1009D00043FC414649A0FFF73FFC4D4807EB470168
:1009E00000EB011539464BA02A68FFF735FC296852
:1009F000414532D14EA0FFF72FFC298C0F98814240
:100A00002BD14DA0FFF728FC298A1098814224D1D0
:100A10004BA0FFF721FCE98B119881421DD14AA020
:100A2000FFF71AFC698C1298814216D148A0FFF793
:100A300013FC129858B10020721E0CE0291891F88E
:100A400026301399095C8B4207D1904201D142A014
:100A50004AE0401CC0B2B042F0D37F1CFFB2A07885
:100A60008742B3D3C1B22A4D01EB410005EB001020
:100A7000C0F80080A0F804B0A0F806A0A0F8089084
:100A80000C9A42810D9A82810E9AC281A0F812B00E
:100A9000A0F814A0A0F816900C9A02830D9A428335
:100AA0000E9A82830F9A0284109A0282818411998D
:100AB000C18312994184324626301399FFF715FD00
:100AC000A078401CA07000F055F8E989A889CDE90C
:100AD00000016B892A89E988A88805F017FD6078EC
:100AE00008B90120607021A0BDE8FC5F07F01EBBC3
:100AF000560000202031200A000000007354696D68
:100B000065506F696E74203D2025750A0000000055
:100B100064020020627566665B25755D2E74696DE2
:100B200065506F696E74203D2025750A0000000035
:100B30002032200A000000002033200A00000000BC
:100B40002034200A000000002035200A00000000A8
:100B50002036200A0000000041545F414C41524DB4
:100B60005F5245504541540A0000000041545F4F18
:100B70004B0A00002DE9F0438DB000273021684674
:100B8000FFF74CFD0026DFF86490DFF8648025E075
:100B900000251AE005EB450109EB0114216B2068E3
:100BA000884211D9214630226846FFF7E3FC04F160
:100BB0003007394620463022FFF7DCFC3846302229
:100BC0006946FFF7D7FC01276D1C98F80200801BCF
:100BD000401EA842DEDC002F05D0761C98F80210DB
:100BE000491E8E42D4DB0DB0BDE8F08364020020C4
:100BF00056000020FEE700207047002070470000EC
:100C000010B500220449054805F0C4FF0449034813
:100C100005F0BAFF002010BD140F0020C806002008
:100C2000140D002070B50D4604460146104805F02D
:100C3000ABFF0F4805F08CFF0D480E49D0F8B80205
:100C4000097821B10CA007F071FA002070BD0949A4
:100C50002A880A314A8001220A702A68641E115DBE
:100C60000D29F2D1D0F804120648FFF73EFCECE75C
:100C7000C80600205600002041545F425553590ACF
:100C8000000000008C0B0020084A10B5D2F8B822F2
:100C9000D2F81432002BFBD10A460146034805F076
:100CA00079FFBDE81040014805F0D2BFC80600201A
:100CB0003EB515A4022938CC8DE838000BD0481E6B
:100CC0000C281ED20DEB010010F8010C904218D335
:100CD000BAB101203EBD830705D16423B0FBF3F414
:100CE00003FB14033BB94FF4C873B0FBF3F403FBED
:100CF00014000028E6D19DF80100401C8DF8010089
:100D0000E0E700203EBD00001F1C1F1E1F1E1F1F0E
:100D10001E1F1E1F2DE9F34FDFF8ACA4AFB001205A
:100D20000C468AF80000002523952C952D952295D8
:100D3000219513958DF8A0502495209512958DF846
:100D40007850ADF824502A958DF898508DF8A4501D
:100D50008DF83C50ADF8385000278DF87C508DF858
:100D600094508DF8AC50ADF82850ADF87450ADF8F3
:100D70003450ADF82C50ADF83050ADF89C50B8461A
:100D80008DF85050B94615A805F032FB1B981A99FA
:100D900080B289B2CDE90010199883B2189882B256
:100DA000179881B2169880B207F004FC11901C9835
:100DB000C6B2002019E02F99095C2F2904D03A29E6
:100DC00005D03D2908D00EE07F1CFFB20BE008F1F2
:100DD000010101F0FF0806E0411C8DF8501009F1F7
:100DE000010101F0FF09401CC0B2A042E3D30C2274
:100DF000F6A02F99FFF72EFB4FF0020B002866D0CC
:100E00000C22F6A02F99FFF725FB00287ED00F2299
:100E1000F6A02F99FFF71EFB002878D01322F7A029
:100E20002F99FFF717FB002872D01222F8A02F99F4
:100E3000FFF710FB00286CD01522FAA02F99FFF7BE
:100E400009FB002866D00C22FCA02F99FFF702FBBB
:100E5000DFF8F89300287DD01022FDA02F99FFF72E
:100E6000F9FA002801F0E0840E22FEA02F99FFF786
:100E7000F1FA4FF6FF76002801F06D851122FDA0F2
:100E80002F99FFF7E7FA002801F0B0850F22FEA0A6
:100E90002F99FFF7DFFA002801F0C8850B22FEA08A
:100EA0002F99FFF7D7FA002801F0E4850722FDA06B
:100EB0002F99FFF7CFFA002801F0F085FBA000BFC3
:100EC00007F034F98AF8005031B0BDE8F08F032FF5
:100ED00002D0042F7ED01EE2B8F1020FFBD1B9F18F
:100EE000010FF8D19AF80200142874D204AEF2A3CC
:100EF000F2A240F634014FF4FA6086E80F0009AA26
:100F0000CDE90024EEA1042028AB04E005E2ABE328
:100F1000F1E3F1E3F1E3CDE9020114AA23A92F984B
:100F200007F030FA00287CD005ABE3A2E3A10C2047
:100F300083E807005E460DA98DE852000127E0A076
:100F4000CDE9030726AB14AA2CA92F9807F01AFAAB
:100F5000002800E0FEE3E6D0D7A10791D7A21F202A
:100F6000CDE905020EA98DE85200D5A0CDE9030711
:100F700029AB14AA2DA92F9807F004FA0028D2D083
:100F8000CDA10791CDA21720CDE905020AA98DE8D0
:100F90005200CCA0CDE903051EAB14AA20A92F98BE
:100FA00007F0F0F90028BED0C3A0C4A1CDE9061017
:100FB0000BA98DE852000DF10C083B27C1A088E871
:100FC000A1001FAB14AA21A92F9807F0DBF9002874
:100FD000A9D001E040E0C1E0B7A0B8A1CDE906107A
:100FE0000CA98DE85200B8A088E8A10025AB14AA8E
:100FF00022A92F9807F0C6F9002894D0BDF8380030
:10100000C2B2BDF83400C1B2BDF82400FFF750FEF3
:10101000012806D1BDF83010BDF82C00CDE9000143
:1010200000E0CFE0BDF82830BDF83820BDF834101E
:10103000BDF8240007F0BEFA1199814205D900BF1E
:101040008AF80050A1A001F0C3BC12A9CDE9065155
:1010500005950A21089553E1B8F1020F7DD1B9F148
:10106000010FFBD19AF80200142877D204AE92A3A4
:1010700092A240F634014FF4FA6086E80F0009AA04
:101080008FA10420CDE90024CDE9020128AB14AAE8
:1010900023A92F9807F076F9002884D086A107911C
:1010A00086A20C20CDE905025E460DA98DE852000E
:1010B000012783A0CDE9030726AB14AA2CA92F98FA
:1010C00007F060F9002898D07BA107917BA21F2030
:1010D000CDE905020EA98DE8520079A0CDE90307FC
:1010E00029AB14AA2DA92F9807F04CF9002884D019
:1010F00071A1079171A21720CDE905020AA98DE817
:10110000520070A0CDE903051EAB14AA20A92F98A8
:1011100007F038F90028C0D067A068A1CDE9061013
:101120000BA98DE852000DF10C083B2765A088E85B
:10113000A1001FAB14AA21A92F9807F023F90028BA
:10114000ABD05DA05DA1CDE906100CA98DE85200E1
:101150005BA025AB14AA22A901E0DCE05EE188E8EF
:10116000A1002F9807F00EF9002896D05BA053A19C
:10117000CDE9061054A0049505951DA903908DE8AE
:1011800052000FAB14AA12A92F9807F0FBF8002801
:1011900099D0BDF83800C2B2BDF83400C1B2BDF874
:1011A0002400FFF785FD01280CD1BDF83010BDF8F3
:1011B0002C00CDE90001BDF82830BDF83820BDF87D
:1011C00034108DE050E100005600002041545F5380
:1011D000485554444F574E3D0000000041545F5065
:1011E0004F5745525F4F46463D00000041545F5304
:1011F00054415254494E475F55503D0041545F4160
:101200004C41524D5F504F5745525F4F46463D004F
:1012100041545F414C41524D5F53485554444F57E0
:101220004E3D000041545F414C41524D5F5354418B
:101230005254494E475F55503D00000041545F53A2
:1012400045545F54494D453D0000000064020020B4
:1012500041545F4745545F504C414E5F4C49535495
:101260000000000041545F434C4541525F4C4953DC
:10127000543D000041545F434C4541525F4C49533B
:10128000545F414C4C00000041545F4745545F455A
:101290004C4543545249430041545F4745545F54C1
:1012A000494D450041545F48454C500041545F450D
:1012B00052524F520A000000390000003000000076
:1012C0002F0000003A0000000D00000041545F5460
:1012D000494D5F4552524F520A0000007A0000000B
:1012E000BDF8240007F066F9119981423FF6A8AED7
:1012F00012A9CDE90651BDF8741005950895C9B23B
:10130000BDF83020BDF82C30CDE90361D2B2DBB29C
:10131000CDE901324AE3FEA0D2E5032F7DD0042FB0
:10132000F9D1B8F1020FF6D1B9F1010FF3D19AF862
:101330000200142872D2AFF28003AFF2800204AE32
:1013400040F634014FF4FA6086E80F00AFF29001E6
:1013500009AA0420CDE90024CDE9020128AB14AA92
:1013600023A92F9807F00EF800287DD0AFF2B8021D
:10137000AFF2B8010C2005AB012783E80700AFF2FC
:10138000C0005E460DA98DE85200CDE9030726ABEB
:1013900014AA2CA92F9806F0F5FF0028E5D0AFF28B
:1013A000E801AFF2E8021F200791CDE90502AFF294
:1013B000F0000EA98DE85200CDE9030729AB14AA6D
:1013C0002DA92F9806F0DEFF0028CED0AFF218111D
:1013D000AFF2181217200791CDE90502AFF21C10E9
:1013E0000AA98DE85200CDE903051EAB14AA20A975
:1013F0002F9806F0C7FF0028B7D0AFF24410AFF225
:101400004411CDE906103B27AFF248100BA98DE837
:1014100052001FAB14AA21A901E043E0C0E00DF186
:101420000C0888E8A1002F9806F0ACFF00289CD09B
:10143000AFF27C10AFF27C11CDE90610AFF2801054
:101440000CA98DE8520088E8A10025AB14AA22A9B6
:101450002F9806F097FF002887D0AFF28010AFF2E8
:10146000A4110495059500E099E0CDE90610AFF2CE
:10147000A8101DA903908DE852000FAB14AA12A961
:101480002F9806F07FFF002888D0BDF83800C2B240
:10149000BDF83400C1B2BDF82400FFF709FC0128F3
:1014A0007DD1C4E0B8F1020F7FF415ADB9F1010FA1
:1014B000FAD19AF80200142872D2AFF20423AFF2E4
:1014C000042204AE40F634014FF4FA6086E80F00BF
:1014D000AFF2142109AA0420CDE90024CDE90201CC
:1014E00028AB14AA23A92F9806F04CFF00289ED001
:1014F000AFF23C21AFF23C220C200791CDE905026E
:101500000127AFF244205E460DA98DE85200CDE9D7
:10151000030726AB14AA2CA92F9806F033FF002846
:1015200085D0AFF26C21AFF26C221F200791CDE97C
:101530000502AFF274200EA98DE85200CDE9030731
:1015400029AB14AA2DA92F9806F01CFF00289BD0C8
:10155000AFF29C21AFF29C2217200791CDE9050242
:10156000AFF2A0200AA98DE85200CDE903051EAB19
:1015700014AA20A92F9806F005FF002884D0AFF206
:10158000C820AFF2C821CDE906103B27AFF2CC202E
:101590000BA98DE852001FAB14AA21A901E0A9E014
:1015A000DAE00DF10C0888E8A1002F9806F0EAFEB9
:1015B00000289CD0AFF20030AFF20031CDE9061028
:1015C000AFF2FC200CA98DE8520088E8A10025AB01
:1015D00014AA22A92F9806F0D5FE002887D0BDF8BE
:1015E0003800C2B2BDF83400C1B2BDF82400FFF724
:1015F0005FFB01287ED1BDF83010BDF82C00CDE98D
:101600000001BDF82830BDF83820BDF83410BDF811
:10161000240006F0CFFF119981423FF611AD12A9C7
:10162000CDE906510A23059505210895F6E3BDF895
:101630003010BDF82C00CDE90001BDF82830BDF810
:101640003820BDF83410BDF8240006F0B3FF11991E
:101650008142E2D812A9CDE90651BDF87410059572
:101660000895C9B20523CCE2032F74D0042F7FF470
:1016700032ACB8F1020FFAD1B9F1010FF7D19AF8F3
:101680000200142868D2AFF2D033AFF2D03204AEE9
:1016900040F634014FF4FA6086E80F00AFF2E03113
:1016A00009AA0420CDE90024CDE9020128AB14AA3F
:1016B00023A92F9806F066FE00288FD0AFF20841CC
:1016C000AFF208420C200791CDE905020127AFF2E5
:1016D00010405E460DA98DE85200CDE9030726AB08
:1016E00014AA2CA92F9806F04DFE0028E5D0AFF2E1
:1016F000384203E00AE17EE1E9E2FDE3AFF2444370
:101700001F200792CDE90503B846AFF24C4007E031
:1017100041545F444154415F4552524F520A0000C8
:101720000EA98DE85200CDE9030729AB14AA2DA913
:101730002F9806F027FE0028BFD0AFF28441AFF209
:10174000844217200791CDE90502AFF288400AA92B
:101750001EAB02E0FBE35BE0D9E08DE85200CDE98F
:10176000030514AA20A92F9806F00CFE0028A4D087
:10177000AFF2BC40AFF2BC41CDE906103B27AFF25F
:10178000BC400BA98DE852000DF10C091FAB89E894
:10179000A10014AA21A92F9806F0F4FD00288CD0EE
:1017A000AFF2EC40AFF2EC41CDE90610AFF2F04001
:1017B0000CA98DE8520089E8A10025AB14AA22A942
:1017C0002F9806F0DFFD002890D0AFF2F040AFF286
:1017D0001451CDE9061004950595AFF214501DA9DA
:1017E00003908DE852000FAB14AA12A92F9806F0AF
:1017F000C9FD0028A0D0BDF83800C2B2BDF8340041
:10180000C1B2BDF82400FFF753FA01287ED1CEE023
:10181000B8F1020F7FF47FADB9F1010FFAD19AF858
:101820000200142873D2AFF27053AFF2705204AEBC
:1018300040F634014FF4FA6086E80F00AFF28051B1
:1018400009AA0420CDE90024CDE9020128AB14AA9D
:1018500023A92F9806F096FD002888D0AFF2A85152
:10186000AFF2A8520C200791CDE905020127AFF293
:10187000B0505E460DA98DE85200CDE9030726ABB6
:1018800014AA2CA92F9806F07DFD002887D0AFF26E
:10189000D852AFF2D8531F200792CDE90503B846BE
:1018A000AFF2E4500EA98DE85200CDE9030729AB51
:1018B00014AA2DA92F9806F065FD002884D0AFF258
:1018C0000861AFF2086217200791CDE90502AFF277
:1018D0000C600AA98DE85200CDE903051EAB14AADD
:1018E00020A92F9806F04EFD0028B6D0AFF2386040
:1018F000AFF23861CDE906103B27AFF238600BA993
:101900008DE852001FAB14AA21A901E0A8E0ECE188
:101910000DF10C0989E8A1002F9806F033FD00288D
:101920009BD0AFF26C60AFF26C61CDE90610AFF204
:1019300068600CA98DE8520089E8A10025AB14AAC3
:1019400022A92F9806F01EFD002886D0BDF8380089
:10195000C2B2BDF83400C1B2BDF82400FFF7A8F947
:1019600001287DD1BDF83010BDF82C00CDE9000173
:10197000BDF82830BDF83820BDF83410BDF824007B
:1019800006F018FE119981423FF65AAB12A9CDE933
:101990000651BDF83020BDF82C4005950895D2B20F
:1019A000E4B2CDE901420A23CDE9038335E2BDF873
:1019B0003010BDF82C00CDE90001BDF82830BDF88D
:1019C0003820BDF83410BDF8240006F0F3FD11995D
:1019D0008142D9D812A9CDE90651BDF87410BDF8DD
:1019E0003030BDF82C4005950895C9B2CDE903818A
:1019F000DBB2E4B20FE2A7B3012F7FF48CACB8F1F5
:101A0000020FFAD1B9F1010FF7D19AF80200574647
:101A100014287DD2AFF26071AFF26072CDE9062179
:101A200017200590AFF264710AAA8DE81408CDE979
:101A300003151EAB14AA20A92F9806F0A3FC0028BA
:101A400067D0AFF28C71AFF28C72CDE906214FF006
:101A50003B08AFF290710BAA8DE814081FAB01E0B0
:101A600074E241E003A814AA80E8220121A92F987A
:101A700006F088FC0028E3D0AFF2C471AFF2C47264
:101A8000CDE90621AFF2C8710CAA8DE8140803A8AD
:101A900025AB80E8220114AA22A92F9806F072FC37
:101AA0000028CDD0FDA1FEA2CDE90621AFF2E8715C
:101AB0001DAACDE900240DF10809072089E82301BA
:101AC0000FAB14AA12A92F9806F05CFC0028B7D01F
:101AD0001698ADF824001798ADF834001898ADF8B2
:101AE0003800002412AFBCE0B8F1020F85D1B9F183
:101AF000010F86D19AF80200564614287ED2AFF61E
:101B00004801AFF6480217200791CDE9050201E030
:101B100069E297E3AFF654005F460AA98DE89200A8
:101B2000CDE903051EAB14AA20A92F9806F02AFCC4
:101B3000002871D0AFF68001AFF680024FF03B086D
:101B4000AFF68000CDE906210BA98DE892000DF1DA
:101B50000C091FAB89E8210114AA21A92F9806F0CE
:101B600011FC0028E5D0AFF6B001AFF6B002AFF639
:101B7000A800CDE906210CA98DE8920089E8210191
:101B800025AB14AA22A92F9806F0FCFB0028D0D080
:101B90001698ADF824001798ADF834001898ADF8F1
:101BA0003800BDF828101998884211DB0AD1BDF819
:101BB0002C101A9888420BDB04D1BDF830101B980A
:101BC000884205DB01230EAA0DA909A806F012FB25
:101BD000BDF83010BDF82C00CDE90001BDF828306B
:101BE000BDF83820BDF83410BDF8240006F0E2FC42
:101BF00012A9CDE906510595072100E0F5E006237D
:101C00000895BDF83020BDF82C40CDE90331D2B2A3
:101C1000E4B2CDE901423DE301E1A2A0FDE3AFF270
:101C20001050FBE7385DB04201D9C0B24DE016D18B
:101C3000BDF828101998884223DB0AD1BDF82C1072
:101C40001A9888421DDB04D1BDF830101B988842D9
:101C500017DB9DF83C00641C844234D305E0641C0F
:101C6000E4B29DF83C008442DCD39DF84810C6F1F4
:101C7000070000240844C3B20EAA0DA909A806F063
:101C8000B9FABDF83010BDF82C00CDE90001BDF85F
:101C90002830BDF83820BDF83410BDF8240006F017
:101CA00089FC9DF83C10CDE90541CDE90771BDF8EF
:101CB00030200621D2B2BDF82C30CDE90221DBB2B2
:101CC00001930491E6E2E4B2385D801BD3E77FB173
:101CD000012F7FF420ABB8F1020FFAD1B9F1010F57
:101CE000F7D19AF8020014287ED38AF8005094E7BE
:101CF000B8F1020FEDD1B9F1010FEAD19AF8020063
:101D00005646142871D2AFF65022AFF6502105ABDB
:101D1000172083E80700AFF654205F460AA98DE834
:101D20009200CDE903051EAB14AA20A92F9806F056
:101D300029FB002873D0AFF68021AFF680224FF048
:101D40003B08AFF68020CDE906210BA98DE8920073
:101D50000DF10C091FAB89E8210114AA21A92F98C4
:101D600006F010FB0028E5D0AFF6B421AFF6B422A0
:101D7000AFF6AC20CDE906210CA98DE8920089E8E8
:101D8000210125AB14AA22A92F9806F0FBFA0028FE
:101D9000D0D01698ADF824001798ADF834001898F4
:101DA000ADF83800BDF828101998884211DB0AD127
:101DB000BDF82C101A9888420BDB04D1BDF8301006
:101DC0001B98884205DB01230EAA0DA909A806F07D
:101DD00011FABDF83010BDF82C00CDE90001BDF8B6
:101DE0002830BDF8382001E01AE009E1BDF83410D0
:101DF000BDF8240006F0DEFB12A9CDE9065107224A
:101E0000BDF83030BDF82C40059504210895CDE98A
:101E10000312DBB2E4B2CDE901433BE26EE145E1FE
:101E2000AFF66C31AFF66C3217200791CDE90502A1
:101E3000AFF670305F460AA98DE89200CDE9030540
:101E40001EAB14AA20A92F9806F09CFA00287DD07A
:101E5000AFF69C31AFF69C324FF03B08AFF69C30AA
:101E6000CDE906210BA98DE892000DF10C091FABFD
:101E700089E8210114AA21A92F9806F083FA0028E5
:101E8000E5D0AFF6CC31AFF6CC32AFF6CC30CDE901
:101E900006210CA925AB14AA0EE0000037000000B3
:101EA0003100000041545F4C4953545F46554C4C3F
:101EB0005F4552524F520A008DE8920089E8210195
:101EC00022A92F9806F05EFA0028C0D0AFF23401A4
:101ED000AFF23402CDE90621AFF614411DAACDE9D7
:101EE000002402AF072087E823010FAB14AA12A930
:101EF0002F9806F047FA00E066E00028A7D0169871
:101F0000ADF824001798ADF834001898ADF83800F3
:101F1000002412AF21E0385DB04201D9C0B251E0D7
:101F200019D1BDF828101998884226DB0AD1BDF8CE
:101F30002C101A98884220DB04D1BDF830101B9871
:101F400088421ADB9DF83C00641C01E00CE2B5E11C
:101F5000844235D305E0641CE4B29DF83C00844221
:101F6000D9D39DF84810C6F1070000240844C3B235
:101F70000EAA0DA909A806F03DF9BDF83010BDF86C
:101F80002C00CDE90001BDF82830BDF83820BDF89F
:101F90003410BDF8240006F00DFB9DF83C1006231C
:101FA000CDE90541CDE90771BDF82C40BDF83010F1
:101FB000E4B202AE0422C9B2019486E80E0069E1DF
:101FC000E4B2385D801BD2E77FB1012F7FF4A3A973
:101FD000B8F1020FFAD1B9F1010FF7D19AF8020066
:101FE000574614287ED33D7017E6B8F1020FEDD1A5
:101FF000B9F1010FEAD19AF802005646142801D32C
:1020000035700AE6AFF65051AFF6505217200791DF
:10201000CDE90502AFF65452CDE903250AA98DE8B2
:1020200012081EAB14AA20A92F9806F0ABF9E8B34A
:10203000AFF67C50AFF67C51CDE906103B27AFF6EA
:102040007C510BAA8DE8140803A81FAB80E8A200FE
:1020500014AA21A92F9806F095F938B3AFF6A85025
:10206000AFF6A851CDE90610AFF6A4510CAA8DE841
:10207000140803A825AB80E8A20014AA22A92F986F
:1020800006F080F990B11698ADF824001798ADF8D5
:1020900034001898ADF83800BDF828101998884217
:1020A00013DB0CD1BDF82C101A9800E031E0884207
:1020B0000BDB04D1BDF830101B98884205DB0123EF
:1020C0000EAA0DA909A806F095F8BDF83010BDF8C4
:1020D0002C00CDE90001BDF82830BDF83820BDF84E
:1020E000341000E017E0BDF8240006F063FA12A9EE
:1020F000CDE906510723059503210895BDF8302049
:10210000BDF82C40D2B2CDE90221E4B2019404938F
:10211000C0E0357083E5AFF66061AFF66062CDE98F
:10212000062117200590AFF66461D8460AAA8DE80B
:102130001401CDE903151EAB14AA20A92F9806F0AF
:1021400021F900287ED0AFF69061AFF69062CDE91C
:1021500006214FF03B09AFF694610BAA8DE81401FC
:1021600003A81FAB80E8220214AA21A92F9806F029
:1021700009F90028E6D0AFF6C061AFF6C062CDE93C
:102180000621AFF6C4610CAA8DE8140103A825ABA3
:1021900080E8220214AA22A92F9806F0F3F800285A
:1021A000D0D0AFF20831AFF20832CDE90621AFF658
:1021B000E8611DAACDE900240DF10808072088E890
:1021C00023020FAB14AA12A92F9806F0DBF80028FF
:1021D000B8D01698ADF824001798ADF834001898C8
:1021E000ADF83800002412AF1EE0385DB04201D9CE
:1021F000C0B261E016D1BDF828101998884225DBDD
:102200000AD1BDF82C101A9888421FDB04D1BDF802
:1022100030101B98884219DB9DF83C00641C8442F6
:1022200048D305E0641CE4B29DF83C008442DCD352
:102230009DF84810C6F1070000240844C3B20EAA56
:102240000DA900E0C0E309A805F0D4FFBDF83010E7
:10225000BDF82C00CDE90001BDF82830BDF83820CC
:10226000BDF83410BDF8240006F0A4F99DF83C1028
:102270000323CDE90541CDE90771BDF87410BDF820
:102280002C20CCB2BDF83010D2B2C9B2CDE90121B8
:10229000CDE90334BDF82810C9B20091BDF838105B
:1022A000CBB2BDF83410CAB2BDF82410FEF784FBDF
:1022B000FEF708BEE4B2385D801BBFE704AFF7A3AA
:1022C000F7A240F634014FF4FA6087E80F0009AA3C
:1022D000F4A10420CDE90024CDE9020128AB14AA21
:1022E00023A92F9806F04EF8F0B304ABEBA7ECA2AD
:1022F0000C21012083E88700EAA103910DAA8DE853
:10230000140826AB14AA2CA92F9806F03BF858B352
:1023100004AFE2A3E2A21F21012087E80F00E1A0A1
:102320005F460EA903908DE8920029AB14AA2DA94F
:102330002F9806F027F8B8B1D8A1D9A2CDE9062187
:1023400017200590B8460AAA8DE81401D6A1CDE958
:1023500003151EAB14AA20A92F9806F013F818B184
:10236000CEA0CFA13B2700E03EE0CDE906100BAAAE
:102370008DE8140103A8CCA180E8A2001FAB14AA29
:1023800021A92F9805F0FEFF70B3C4A0C4A1CDE928
:1023900006100CAA8DE8140103A8C4A180E8A200CD
:1023A00025AB14AA22A92F9805F0ECFFE0B1BDF8E7
:1023B0003010BDF82C00CDE90001BDF82830BDF883
:1023C0003820BDF83410BDF8240006F0F3F80746B5
:1023D000BDF83800C2B2BDF83400C1B2BDF8240067
:1023E000FEF766FC012802D08AF8005017E4BDF819
:1023F0003800C2B2BDF83400C1B2BDF8240004F008
:1024000031F85FEA000801D14FF00708BDF830202D
:10241000BDF82C10BDF8280000E0D4E28DE80700DC
:10242000BDF83830BDF83420BDF82410A0A0FDF769
:1024300013FFCB464C463A46A5A0D9F80010FDF74D
:102440000BFF2068B84212D2BDF83800BDF830301A
:10245000BDF82C20BDF828108DE80F004046BDF8CF
:102460003430BDF82420012106F09EFA70E0BBF85C
:102470000E10BBF80C00CDE90001D946BBF80A30BC
:10248000BBF80820BBF80610BBF8040004F03EF8C7
:10249000B9F81000002406285AD1BDF82410A9F874
:1024A0000410BDF83410A9F80610BDF83810A9F8CA
:1024B0000810914AB9F8221025E000BF09EB04008A
:1024C00090F82630434501D9484654E019D1B9F86F
:1024D0000A00BDF82830984224D848460AD183899A
:1024E000BDF82CC063451DD804D1C389BDF830C0E8
:1024F000634517D8641CA1423CD20024C8F10701EF
:1025000007E0641CE4B2A142D8D80024C8F1070156
:10251000484690F826301944CBB2811D09F10400D9
:1025200005F068FEB9F80E10B9F80C00CDE900010D
:10253000B9F80A30B9F80820B9F80610B9F804005B
:1025400006F038F8C9F80000A9F81E40FEF712FBA3
:10255000BDF83010BDF82C00CDE90001BDF82830E1
:10256000BDF83820BDF83410BDF8240003F0A8FFF2
:10257000002014E1E4B2011991F82630A3EB080120
:10258000CAE700BF08EB48010BEB01142268BA420E
:102590002AD2228A0B2A27D2DFE802F0FC0E27B5C6
:1025A000CDE5FD06FCFC060006F056F899F8021091
:1025B000491E89F80210F3E0A088401C80B2A08078
:1025C000E289A189CDE9001263892289E18805F0B9
:1025D000F1FF2060227AA179A088FEF769FB00282C
:1025E000EAD02068B842E7D9D4E0E0880C2809D0C6
:1025F000401C81B2E180E289A089CDE900026389B3
:1026000022893CE0A0884FF00109401C80B2A080E4
:10261000A4F80690E389A289CDE90023494663899D
:1026200022890CE0E0880C2817D0401CE080E1896A
:10263000A089CDE9000163892289E188A08805F09D
:10264000B9FF2060227AA179A088FEF731FB00282B
:10265000E8D02068B842E5D99CE0A088401CA08062
:10266000A4F80690E3E7E0880C2847D0401CE080FF
:10267000E189A089CDE9000163892289E188A088E8
:1026800005F098FF2060227AA179A088FEF710FB60
:102690000028E8D02068B842E5D97BE03900000086
:1026A000300000002F0000003A0000000D00000084
:1026B00041545F5345545F54494D453D25642F2592
:1026C000642F25642F25643A25643A25640A0000A6
:1026D000627566665B305D2E74696D65506F696EFC
:1026E00074203D2025752074696D65506F696E7486
:1026F000203D2025750A00006C020020A088401CA7
:10270000A0800120B3E704F10802914600E04A46A8
:10271000A11D201D0E2305F06DFDE189A089CDE9E5
:10272000000163892289E188A08805F043FF2060C9
:10273000B842ECD92EE004F10802914600E04A4686
:10274000A11D201D072305F055FDE189A089CDE9D4
:10275000000163892289E188A08805F02BFF2060B1
:10276000B842ECD916E004F10802914600E04A466E
:10277000A11D201D012305F03DFDE189A089CDE9C2
:10278000000163892289E188A08805F013FF206099
:10279000B842ECD900E00EE008F10100C0B280467A
:1027A0009AF80210D1468845FFF4ECAEFEF7E2F944
:1027B000BCA0FEF785BBE28B521C92B2E283638C15
:1027C0009A4200D1E583E28B26205A4400EB01199E
:1027D00012F8090025E0801B03E000BFC6F10701E5
:1027E0000844C3B204F10802A11D201D05F002FD3A
:1027F000E189A089CDE9000163892289E188A08867
:1028000005F0D8FE2060B842CAD8E18B491C89B2D5
:10281000E183628C914200D1E583E18B594411F848
:102820000900B042DAD3D6E79AF80210504611B147
:102830000027D04669E00570C4E000BF07EB470100
:1028400009EB0114208C07280BD2DFE800F00A31D5
:10285000042E06342B00954801E09448443005F0DE
:1028600065FC208A062829D0072827D064219048B3
:10287000FDF7B2FEE08AA38B628B218B8DE80F00FF
:10288000A38A628A8BA18A48FDF7F2FC884805F08A
:102890004DFC208A072823D2DFE800F0221D1F3CD0
:1028A0003E40420081483030D9E780485830D6E772
:1028B0007E482030D3E77D481030D0E764217C4843
:1028C000FDF78AFEA08B0090638B228B7EA1784857
:1028D000FDF7CEFCDAE77FA000E07FA005F026FC44
:1028E00064217348FDF778FE2089E389A289618914
:1028F0008DE80F00E388A28878A16D48FDF7B8FC49
:102900006B4805F013FC7F1CFFB298F80200874269
:1029100094D3CDE479A0E1E779A0DFE779A0DDE702
:10292000AFF2802005F002FC64216148FDF754FEFF
:102930000026DFF87CB109E0A01973A190F82620E9
:102940000BEB0600FDF794FC761CF6B2608CB042EF
:10295000F2D85748C2E79AF80200574680B3AFF260
:10296000C420AFF2C421CDE906101422AFF2C42175
:10297000CDE90452039127AA8DE814082BAB14AAC1
:102980002AA92F9805F0FEFCF0B1BDF89C00C0B25A
:1029900005F098FDD0B1B878F8B1B9F80E20B9F8C3
:1029A0000C10CDE90012B9F80A30B9F80820B9F8CE
:1029B0000610B9F8040000BF03F0A8FD53A0F8E624
:1029C000FFE73D7055A003E03D700FE53D7057A057
:1029D00005F0ACFB31B0BDE8F08F0A20CDE9000670
:1029E0000346012211464FF4FA60E5E79AF8020027
:1029F000544608B100270AE02570E3E707EB4701DA
:102A000009EB01103021FDF709FE7F1CFFB2A07811
:102A10008742F3D30A20CDE900060346012211467E
:102A20004FF4FA6003F072FDA570C7E701248DF83A
:102A3000085002AB0222AA214148009403F076F824
:102A40008DF8045001AB1C22D6213E48009403F0BF
:102A50006DF89DF80400642144098DF80440144881
:102A6000FDF7BAFD23469DF8082037A11048FDF771
:102A7000FFFB11E064210E48FDF7AEFD19AC94E8B0
:102A80000F0001AC84E80F001898DDE916230090D0
:102A900038A10748FDF7ECFB05488AE602F062FC26
:102AA00006E4000041545F4F4B0A0000CC110008BF
:102AB0008D0C002025642F25642F25642F25643A72
:102AC00025643A256400000025643A25643A2564AB
:102AD000000000002F5900002F4D00002D2D6E65C5
:102AE00078742074696D652D25642F25642F256405
:102AF0002F25643A25643A25640A00002F325700D6
:102B00002F5700002F4400002564000041545F430C
:102B10004C4541525F4F4B0A0000000041545F4C4E
:102B20004953545F454D5054590A000041545F4485
:102B3000454C4554455F4552524F520A0000000033
:102B400010020020BC01002070657263656E746124
:102B50006765203D2025752025250A636861726719
:102B6000696E67207374617465203D202575200AA5
:102B70000000000025642F25642F25642F25643A6A
:102B800025643A2564207765656B203D2025640A1D
:102B9000000000007047000010B504A0FDF75CFBCA
:102BA000BDE81040012000F0A7BA00004558544984
:102BB000305F49525148616E646C657220475049DC
:102BC0004F5F50494E5F300A000000001CB50020E6
:102BD0008DF804000120009001AB1C22D6210C4886
:102BE00002F0A4FF010002D00AA0FDF735FB9DF81A
:102BF00004000E4C41090EA02170FDF72DFB20783A
:102C000010B1104802F01CFA042000F075FA1CBD47
:102C1000BC0100205F63686172676553746174650D
:102C200020726574203D2025750D0A0005000020E6
:102C30005F6368617267655374617465203D202528
:102C4000750D0A003C06002070B529480168C905C9
:102C50004DD58515056027A0FDF7FEFA294E002405
:102C60002946304600F044FB012840D1264802F0B6
:102C7000E7F92946304600F03BFB012806D10A203F
:102C800000F074F9641CE4B2642CF2D3632C2ED3EC
:102C90001E4D00204FF48051A870304600F028FBF4
:102CA00018B300201A4C2070207805F001FE20781F
:102CB000297808431BD1144802F0EEF9154C002284
:102CC0000421204600F021FB00220821204600F0CC
:102CD0001CFB00221021204600F017FB2046BDE817
:102CE00070400022202100F010BB0120DAE770BD07
:102CF000140401402D2D2D2D2D2D2D2D2D2D2D315B
:102D00000A000000000C01403C06002005000020E5
:102D1000040000200008014002A0FDF79DFA72B6F1
:102D2000FEE700003430340D0A00000006490020A0
:102D3000C8610648016941F004010161016941F07F
:102D40004001016170470000201600200020024071
:102D5000064A0021D16106490A6942F002020A616D
:102D60004861086940F04000086170472016002063
:102D700000200240044B0022DA61044A136943F048
:102D800001031361018070472016002000200240DB
:102D900014480022C168CB06134904D5CA6942F021
:102DA0000202CA611022C3685B0705D5CB6943F0F4
:102DB0000103CB6142F00402C369DB0707D0CB6992
:102DC00043F00403CB61C16921F00101C161A2F5A7
:102DD0008071013901D0C2607047C16921F00101E1
:102DE000C1617047002002402016002070B50546E2
:102DF00000F090FA0646114C09E0681C07D025B196
:102E000000F088FA801BA84201D9032070BDE06859
:102E1000C007F2D1E068800601D52020E060E068BC
:102E2000C00605D4E069C00702D1E068400703D5B9
:102E3000FFF7AEFF012070BD002070BD00200240F2
:102E4000F0B50F4D00248318AB4217D8C30705D047
:102E500030F8013C01241B0A0B70401C0023551E56
:102E6000171B09E01E19C25A8A55AE4202DA0E44F7
:102E7000120A72709B1C9BB29F42F3DCF0BD0000F3
:102E8000000001082DE9F0410446C0F30900251AAD
:102E9000884686B01646002729461AA0FDF7DCF9B9
:102EA000B4F1006F2BD31C49A019884227D2002E01
:102EB00025D04FF47A7000F059F800F007F900209F
:102EC000049000900120CDE9025004A9684600F06A
:102ED0005FF810B111A0FDF7BFF94FF470724146D1
:102EE000284600F02BF839460DA0FDF7B5F900F0A3
:102EF000A3F806B00DA0BDE8F041FDF7ADB906B0EE
:102F0000BDE8F081537461727441646472657373D7
:102F1000203D202523780A0000000108310A000026
:102F20002069203D2025750A0000000048414C5FC3
:102F3000464C4153485F4C6F636B0A002DE9F041EA
:102F400017460E46804600240CE000BF08EB04053F
:102F5000325929460023022000F078F80028F7D1E2
:102F6000241DA4B2BC42F1D3BDE8F08170B5044683
:102F700000F0D0F90546601C02D0044800780444F3
:102F800000F0C8F9401BA042FAD370BD74000020C5
:102F90002DE9F047054626480F460126017E012906
:102FA0000FD00121814601762868DFF888804CF235
:102FB0005034022808D0A2462046FFF717FFA8B1D8
:102FC00031E00220BDE8F0872046FFF70FFF08BB85
:102FD0000120FFF7ABFE2046FFF708FFD8F81010DE
:102FE000064621F00401C8F810101CE04FF0FF3035
:102FF0003860AC6811E02046FFF7AAFE5046FFF7A4
:10300000F5FED8F81010060021F00201C8F81010E3
:1030100001D03C6007E004F58064D5E9020100EBD3
:103020008120A042E7D8002189F818103046C9E76E
:1030300020160020002002400348016941F0800171
:103040000161002070470000002002402DE9F05F80
:1030500007461C4888460024017E15461E46012965
:1030600009D00121814601764CF2503A5046FFF7D3
:10307000BDFE18B122E00220BDE8F09F012F02D072
:10308000022F00D00427D346DFF83CA022012846B7
:103090003146FDF7CEF881B208EB4400FFF76AFE37
:1030A0005846FFF7A3FEDAF8102022F00102CAF812
:1030B000102018B9641CE4B2BC42E7D3002289F89E
:1030C0001820D9E7201600200020024006490020E1
:1030D0000A69120607D5054A4A60054A4A60096925
:1030E000090600D5012070470020024023016745F2
:1030F000AB89EFCD70470000044910B50A68024261
:1031000002D00860FFF7F6FF10BD00001404014074
:103110002DE9F84FDFF8B891002409F1040A0AF10B
:10312000040B23460F270BF1040EC9E00125A5402F
:103130002A40AA427DD1674ED1F804C0ACEB060804
:10314000B44532D014DCBCF1030F3AD009DCBCF139
:10315000000F2AD0BCF1010F1CD0BCF1020F31D1FD
:103160001DE0BCF1110F17D0BCF1120F2AD119E0EC
:10317000B8F5881F19D006DCB8F5803F15D0B8F532
:10318000801F1FD111E0B8F5001F0ED0B8F5041F45
:1031900018D10AE0CB6815E0CB681B1D12E0CB68A4
:1031A00008330FE0CB680C330CE08B682BB1012B9C
:1031B0004FF0080303D0456104E0042302E00561F9
:1031C00000E00023FF2A01D8064601E000F10406D2
:1031D0004FEA840501D9A5F12005D6F8008007FA49
:1031E00005FC28EA0C0803FA05F548EA0508C6F8C4
:1031F00000804D68ED0062D5374DAE6946F001069E
:10320000AE61AD6924F0030605F001050095334D6C
:1032100006EB050CDCF80850A607360F07FA06F88F
:1032200025EA0805DFF8B880404503D14FF00008D3
:1032300017E044E0DFF8AC80404502D14FF00108D0
:103240000FE0DFF8A480404502D14FF0020808E00B
:10325000DFF89880404502D14FF0030801E04FF0BD
:10326000040808FA06F848EA0508CCF808804D6812
:10327000D9F80060ED034D4601D5164300E09643B2
:103280002E604D68DAF80060AD03554601D516434F
:1032900000E096432E604D68DBF80060ED025D466D
:1032A00001D5164300E096432E604D68DEF80060BD
:1032B000AD02754601D5164300E096432E60641CAE
:1032C0000D682A46E5407FF431AFBDE8F88F000075
:1032D00000040140000011100010024000000140F5
:1032E00000080140000C01400010014000140140A2
:1032F0008068084000D001207047C26821EA0203BC
:103300000A4043EA0241016170470AB10161704716
:103310000904FBE701488068704700007400002042
:1033200070B5040025D094F83D00002520B984F83C
:103330003C50204600F070FA242084F83D002068BC
:10334000016821F0010101602068016841F4004139
:1033500001602068016821F40041016001F084F9F6
:103360004D4A6168914201D84C4900E04C4988427D
:1033700001D2012070BD4B492368B0FBF1F15E68BA
:1033800026F03F060E435E606368934206D94FF411
:10339000967359434FF47A73B1FBF3F12368491CD8
:1033A0001E6A26F03F06314319626168914210D8C7
:1033B0004900401EB0FBF1F2521CC2F30B02042A7A
:1033C00001D2042022E0B0FBF1F0401CC0F30B005E
:1033D0001CE0A268F2B301EBC10303EB0116431E2C
:1033E000B3FBF6F35B1C43F480431B0549D092B357
:1033F00001EBC10202EB0111401EB0FBF1F0401CD9
:10340000C0F30B0040F4804040F400402168CA69DA
:103410004CF6FF739A431043C861D4E90710014387
:103420002068026822F0C00211430160D4E9030160
:1034300001432068826848F2FF339A431143816058
:10344000D4E9050108432168CA6822F0FF0210434D
:10345000C86001E00EE016E02068016841F001015B
:1034600001602564202084F83D00256384F83E50E7
:10347000002070BD01EB4106431EB3FBF6F35B1C5D
:10348000B3E70120C2E701EB4101401EB0FBF1F0C0
:10349000401CC0F30B00B7E7A086010080841E002B
:1034A00000093D0040420F002DE9F84F0025DDF8EE
:1034B0002890984617468A4604460095FFF72AFF4B
:1034C000064694F83D0020287AD119230122834929
:1034D0002046009602F052FA0028F5D194F83C00FC
:1034E00001286DD0012084F83C0020680168C907DC
:1034F00003D1016841F0010101602068016821F4F5
:1035000000610160222084F83D00102084F83E0014
:1035100025646762A4F82A80608D20857048E06287
:1035200033464A465146204602F03EF900287DD1F6
:10353000208DDFF8B081202768B1012814D002283F
:10354000206801681ED041F48061016020684169F3
:1035500080690090B5E02068416981690091016847
:1035600041F400710160ACE02068016821F48061E1
:10357000016072B62068416981690091016841F477
:1035800000710AE041F40061016072B6206841698F
:1035900081690091016821F48061016062B690E068
:1035A000032868D801280CD002284B464FF00002AF
:1035B0004146204600960FD002F0E0F9B0BB10E083
:1035C0008AE032464946204602F057FA70BB20682E
:1035D0000069616A08706BE002F0D0F930BB72B626
:1035E00034E02068016821F48061016072B62068CF
:1035F0000069616A0870606A401C6062208D401E2C
:103600002085608D401E6085374846F2A81100680D
:10361000B0FBF1F0C0EBC00000EB80000090401E5A
:10362000009008D020684069C04300E029E04007CE
:103630000CD50098F3E744F8305F6773A5732069F1
:1036400040F02000206162B625731AE0206801680E
:1036500041F40071016020680069616A0870606A65
:10366000401C6062218D491E2185618D491E618546
:1036700062B621681AE032464946204602F0FDF95A
:1036800010B10120BDE8F88F20680069616A0870F8
:10369000606A401C6062218D491E2185618D491E32
:1036A000618521684A69D24352070AD409690170C9
:1036B000606A401C6062208D401E2085608D401E27
:1036C0006085208D00287FF46BAF84F83D7084F80E
:1036D0003E5084F83C50D5E70220D3E702001000AA
:1036E0000000FFFF04000100800000202DE9F84FDA
:1036F0001F4690468A460446DDF82890FFF70AFEEA
:10370000054694F83D0020287FD119230122404925
:103710002046009502F032F9002876D194F83C005A
:10372000012872D0012084F83C0020680168C90794
:1037300003D1016841F0010101602068016821F4B2
:1037400000610160212084F83D00102084F83E00D3
:1037500000262664C4F824806785608D20852D4866
:10376000E0622B464A465146204602F093F890B953
:10377000206841698069009036E02A464946204623
:1037800002F0AEF950B1206C042804D12068016821
:1037900041F4007101600120BDE8F88F606A216882
:1037A00000780861606A401C6062618D491E618515
:1037B000218D491E89B2218522685369DB435B074D
:1037C0000BD451B100781061606A401C6062608D5A
:1037D000401E6085208D401E20852A464946204691
:1037E00002F0A6F80028CED1208D0028C5D154F8CB
:1037F0003D0B016841F400710160202004F81E09AE
:10380000E67766770020C7E7FFE70220C4E70000FD
:10381000020010000000FFFF30B585B000210091CC
:103820000191029103911E4D03681E4C1221032247
:103830001D48AB4216D1A36943F00803A361A369F5
:10384000039203F008030493C023CDE900316946D5
:10385000FFF75EFCE06940F40010E061E06900F40D
:10386000001019E0114DAB4217D1A36943F00803D2
:10387000A361A369039203F0080304934FF4406328
:10388000CDE900316946FFF743FCE06940F4800070
:10389000E061E06900F48000049005B030BD0000F4
:1038A0000054004000100240000C0140005800404D
:1038B00002488168027811448160704774000020DA
:1038C000074810B5016841F010010160032000F0C5
:1038D00075F80F2000F006F800F024F8002010BD65
:1038E0000020024070B50D4D04464FF47A712878DF
:1038F000B1FBF0F00A490968B1FBF0F001F009FBF7
:1039000048B9102C07D200222146501E00F036F88C
:1039100000206C6070BD012070BD000074000020AC
:10392000800000200C4808B5816941F001018161E7
:10393000816901F001010091C16941F08051C161CB
:10394000C06900F0805000900448416821F0E061B7
:1039500041F08061416008BD00100240000001405C
:10396000002809DB00F01F0201219140400980007E
:1039700000F1E020C0F8001170470000F0B40E4BD9
:103980001B680C46C3F30223C3F10705042D00D9BD
:103990000425191D072901D2002300E0DB1E0126A2
:1039A00006FA05F1491E214099409E40761E1640B8
:1039B0003143F0BC04F00CBC0CED00E0064900F013
:1039C000070208684FF6FF03184040EA0220034A46
:1039D00010430860704700000CED00E00000FA059D
:1039E00010B50C0607D501F0070101EB810100EBD2
:1039F000C100283005E001EB810100EBC10000F5BA
:103A0000B47099B232B1012202730181190C418163
:103A1000002010BD00220273C180F9E7704701EB5E
:103A2000810200EBC202D0F8E802D26B03F0B9BA0F
:103A300001EB810200EBC202D0F8E802D2F87C214F
:103A400003F012BB70B504460B0601F0070000EB53
:103A5000800104EBC1014FF001024FF0000503D5D6
:103A600081F82920283103E081F8695101F5B4710A
:103A7000087094F8A802012808D084F8A8222068C9
:103A800003F032FF84F8A852002070BD022070BD00
:103A900070B5044601F00F006268904201D9012020
:103AA00070BD0B0601F0070000EB800104EBC101C3
:103AB0004FF001024FF0000503D581F8292028318D
:103AC00003E081F8695101F5B4718D70087094F8C4
:103AD000A802012808D084F8A822206803F0A1FFDA
:103AE00084F8A852002070BD022070BD2DE9F05F5F
:103AF00004685FEA424C0B788D69B4F850C04FF00F
:103B000000064BF68F7948F2800A48F68F7B48F220
:103B1000C00E4FF480672AD54FF0020808EBC308A7
:103B2000C44407EB4C07E45BC4F30904A54203D388
:103B30002D1B8D6101D00BE08E61066836F8235095
:103B400005EA090585F4005545EA0A0526F82350DB
:103B5000520609D50D78036833F8252002EA0B02D6
:103B600042EA0E0223F8252084B30A8929E04FF0A7
:103B7000060808EBC308C44407EB4C07E45BC4F336
:103B80000904A54203D32D1B8D6101D00BE08E618A
:103B9000066836F8235005EA090585F4005545EA1C
:103BA0000A0526F82350520609D40B78056835F823
:103BB000232002EA0B0242EA0E0225F823202CB150
:103BC0004A8949690068234604F09AFA2046BDE80C
:103BD000F09F2DE9F05F054600680C465FEA426CF5
:103BE00016468B692278B0F850C048F68F774CF2B1
:103BF00080094FF6FF7B4FF4004E4FF4806A4FF080
:103C000000017BD54FF0020808EBC208E0440AEB44
:103C1000480C30F80C00C0F30900834211D91B1A7C
:103C2000A3610FD0730407D52E6836F822303B40CD
:103C300043EA090326F8223094F82420012A50D0C0
:103C40004EE1A161607810B1012813D01AE0286814
:103C5000B0F85030184400EB0210B0F8042422F4FD
:103C6000F842A0F80424B0F8042442F40042A0F87A
:103C7000042407E02868B0F85030184400EB021024
:103C8000A0F804146278286812B1012A11D018E053
:103C9000B0F850100844217800EB0110B0F80C1473
:103CA00021F4F841A0F80C14B0F80C1441F40041D0
:103CB00005E0B0F850201044227800EB0210A0F884
:103CC0000C1421782846FFF7AAFE7004B8D5217895
:103CD0002A6832F82100384040EA090022F8210021
:103CE000FEE0626902446261E2690244E2612369C2
:103CF000226A9A4203D31846111A04E038E084F885
:103D000024100AB110462162617811B1012923D033
:103D10002BE02968B1F850201144227801EB021100
:103D200001F2044148B13E280FD84208C30700D031
:103D3000521C0BEA82220A8017E00A8822F4F84219
:103D40000A800A8842F40042F5E74209C30600D11E
:103D5000521E4EEA8222EEE72968B1F85020114443
:103D6000227801EB0211A1F8040483B22289B3E0A6
:103D70004FF0060808EBC208E0440AEB480C30F8A4
:103D80000C00C0F30900834211D31B1AA3610FD0AA
:103D9000730407D42E6836F822303B4043EA090307
:103DA00026F8223094F82420012A50D098E0A1610E
:103DB000607810B1012813D01AE02868B0F85030AC
:103DC000184400EB0210B0F8042422F4F842A0F8E2
:103DD0000424B0F8042442F40042A0F8042407E0CC
:103DE0002868B0F85030184400EB0210A0F8041412
:103DF0006278286812B1012A11D018E0B0F850108A
:103E00000844217800EB0110B0F80C1421F4F841BB
:103E1000A0F80C14B0F80C1441F4004105E0B0F81F
:103E200050201044227800EB0210A0F80C142178E6
:103E30002846FFF7F4FD700452D42278296831F83F
:103E40002200384040EA090021F8220048E0626977
:103E500002446261E2690244E2612369226A9A4291
:103E600003D31846111A216204E00AB110462162F8
:103E700084F824106278296812B1012A22D029E03E
:103E8000B1F850201144227801EB021101F20C41EB
:103E900048B13E280FD84208C30700D0521C0BEA95
:103EA00082220A8016E00A8822F4F8420A800A88F0
:103EB00042F40042F5E74209C30600D1521E4EEA21
:103EC0008222EEE7B1F850201144227801EB021172
:103ED000A1F80C04628983B26169286804F064F96E
:103EE00021782A6832F8210048F6BF73184080F024
:103EF000300048F28003184322F821000020BDE87A
:103F0000F09F01F0070101EB810100EBC100D0F847
:103F1000840170472DE9F04104460F0601F00700C7
:103F200000EB800104EBC1014FF001064FF00005EA
:103F300003D581F82960283103E081F8695101F542
:103F4000B47108700A61CB704A7802B1C881022B43
:103F500000D10D7194F8A802012809D084F8A86254
:103F6000206803F093FB284684F8A852BDE8F0814E
:103F70000220FBE770B50C4601F0070505EB850153
:103F800000EBC101C1E95F230022C1F8842181F85F
:103F9000692181F8685101F5B4716207006803F086
:103FA00095FD002070BD70B504460D4601F0070078
:103FB0006168884201D9012070BD29064FF00006D2
:103FC0004FF0010207D500EB800104EBC10181F83D
:103FD0002920283107E005EB850104EBC10181F8B8
:103FE000696101F5B4718A70087094F8A80201281B
:103FF00007D084F8A822206803F04FFD680702D09C
:1040000006E0022070BD04F52C71206803F007FD66
:1040100084F8A862002070BD70B50C4601F0070559
:1040200005EB850100EBC101C1E90F23012281F8F5
:104030004C208B6400234B6481F8292001F8285F11
:104040006207006803F042FD002070BD1FB5044602
:10405000006804F051F8000402D5204601F00CFF7E
:10406000206804F049F840050CD5206830F8441F5A
:1040700021F480610180204600F01EF900212046D5
:1040800000F035F9206804F037F8400405D52068C1
:1040900030F8441F21F480410180206804F02CF89E
:1040A000800405D5206830F8441F21F400510180B8
:1040B000206804F021F8C00414D5206830F8401FAF
:1040C00021F004010180206830F8401F21F0080130
:1040D0000180204600F003F9206830F8441F21F4E5
:1040E00080510180206804F007F800053ED5226861
:1040F0000020694632F8203021F81030401CC0B250
:104100000828F7D332F8400F40F0010010802068F3
:1041100030F8402F22F0010202802068B0F84420DD
:104120005205FBD530F8442F22F480620280002033
:10413000236831F8102023F82020401CC0B2082842
:10414000F6D3206830F8401F41F008010180206854
:1041500030F8441F21F400610180206830F8401FCE
:1041600041F004010180204600F0F6F8206803F0D9
:10417000C3FF800508D5206830F8441F21F4007182
:104180000180204600F0AFF8206803F0B5FFC005BD
:1041900005D5206830F8441F21F4807101801FBDCF
:1041A0002DE9F04186B0040004D094F8A90200255E
:1041B00020B108E0012006B0BDE8F08184F8A852E3
:1041C000204600F05BF8032084F8A902206803F081
:1041D0001FFC04F11001142288466846FCF7CAF956
:1041E00094E80F0003F07EFB0226D0BB002120687C
:1041F00003F0A6FF002001270FE000BF00EB8001C5
:1042000004EBC10181F8297001F8280FC881CD7035
:104210000D614D61401CC0B28D6161688142EDD875
:10422000002011E000EB800104EBC10181F869512D
:1042300081F8680181F86B51C1F87851C1F87C515F
:10424000401CC0B2C1F8805161688142EAD8142292
:1042500041466846FCF78EF994E80F0003F0CFFB67
:1042600010B184F8A962A5E784F8245084F8A972F3
:10427000206803F0C2FB00209DE7000008B500683D
:104280000B49884212D10B48C16941F40001C16158
:10429000C069002200F40000009011461420FFF7CE
:1042A0006DFBBDE808401420FFF75ABB08BD0000B5
:1042B000005C00400010024070B504468068012593
:1042C000022801D0FEF728FD2946D4F8E80202F0C2
:1042D000B4FFD4F8E802BDE8704002F070BFD0F837
:1042E000E80202F094BFD0F8E80202F09ABF10B5DD
:1042F000044690F8A80201280BD0012084F8A802F7
:1043000084F82410206803F01DFF002084F8A80220
:1043100010BD022010BDD0F8E82200F52C71104627
:1043200002F097BF10B5044690F8A802012810D0FB
:10433000012084F8A802206803F0CEFE0121204667
:10434000FFF76CFB206803F056FB002084F8A802FE
:1043500010BD022010BD000010B50446D0F8E802E0
:1043600002F0B6FFA069002804D00348016841F0BC
:104370000601016010BD000010ED00E001490120C0
:104380000862704700000E4210B529A401461DCCFA
:1043900086B08DE81D002AA02A4C006804900020F9
:1043A000012923D002293AD010291DD16168226841
:1043B000D20119D5C1F38342C9031DF8020009D502
:1043C000616804AAC1F34041515C1F4AB2FBF1F19C
:1043D000484301E01D4948436168490204D4400054
:1043E0005FF00301B0FBF1F006B010BD226AC2F32A
:1043F0000121012903D1920701D5C803F4E702295D
:1044000005D1626A920702D549F64040ECE70329DC
:10441000EAD121688903E7D54FF22440E4E700F0B0
:1044200033F96168C1F38131491C4900DAE70000C2
:1044300002030405060708090A0B0C0D0E0F1010E5
:10444000010200000010024000127A0000093D0045
:104450002DE9F84305460078354CC00754D0E06993
:104460000026C00008D4E06940F08050E061E069B7
:10447000012600F0805000902E480168C90512D432
:104480000168804641F480710160FEF743FF0746F2
:1044900005E000BFFEF73EFFC01B642823D8D8F814
:1044A0000000C005F6D5206A10F4407021D0A9881C
:1044B00001F4407181421CD0206A1F49012220F47E
:1044C00040700A6000220A602062C00711D0FEF727
:1044D00021FF074641F2883808E000BFFEF71AFFC7
:1044E000C11B414502D90320BDE8F883206A80073B
:1044F000F4D5206A696820F44070084320621EB138
:10450000E06920F08050E0612878800705D5606878
:10451000A96820F44040084360602878C00605D5AB
:104520006068E96820F48000084360600020DBE7F1
:104530000010024000700040400442422DE9F04764
:104540000F46050061D0434E306800F00700B842C6
:1045500009D2306820F0070038433060306800F03E
:104560000700B84251D128683B4C810712D540075B
:1045700003D5606840F4E06060602878000703D5E8
:10458000606840F4605060606068A96820F0F000E6
:10459000084360602878C00728D06868012810D0D8
:1045A0002168022810D0890700292EDA616821F0DD
:1045B000030101436160FEF7ADFE804641F2883998
:1045C0000DE021688903EFE78901EDE7FEF7A2FE20
:1045D000A0EB0801494502D90320BDE8F0876068D7
:1045E000696800F00C00B0EB810FEFD1306800F08B
:1045F0000700B8420BD9306820F00700384330601C
:10460000306800F00700B84201D00120E5E72878C3
:10461000400705D56068E96820F4E0600843606001
:104620002878000706D56068296920F4605040EAC0
:10463000C100606000F038F86168084AC1F30311F6
:10464000515CC8400649086006480068FFF74AF90F
:104650000020C2E70020024000100240B08B00089A
:10466000800000207800002004480549006849685F
:10467000044AC1F30221515CC84070478000002009
:1046800000100240C08B00080448054900684968D2
:10469000044AC1F3C221515CC84070478000002029
:1046A00000100240C08B000812A185B00FC98DE830
:1046B0000F0014A0144A006804905168134801F0D8
:1046C0000C03042B10D0082B0ED1C1F38343C90374
:1046D0001DF803000AD5516804AAC1F34041515C9A
:1046E0000A4A5043B0FBF1F005B07047084948430F
:1046F000FAE7000002030405060708090A0B0C0D7F
:104700000E0F1010010200000010024000127A008B
:1047100000093D002DE9F84F040070D02078C04D0D
:10472000C00749D06868C0F38100012807D06868D5
:10473000C0F38100022809D16868C00306D5286843
:10474000800339D560680028E7D035E06068B0F5AF
:10475000803F0BD010B1B0F5A02F11D0286820F405
:1047600080302860286820F4802002E0286840F427
:1047700080302860606890B1FEF7CCFD06460AE004
:10478000286840F480202860F0E700BFFEF7C2FDF3
:10479000801B642873D828688003F7D50CE0FEF7E7
:1047A000B9FD064605E000BFFEF7B4FD801B642896
:1047B000F0D828688003F7D420789A4E80074FF00D
:1047C00001094FF0000839D5686810F00C0F07D0C8
:1047D0006868C0F38100022809D16868C00306D464
:1047E0002868800714D52069012808D110E02069C5
:1047F000B0B1C6F80090FEF78DFD074605E00AE16E
:10480000FEF788FDC01B0228C4D828688007F7D5AA
:104810002868616920F0F80040EAC10028600DE0D6
:10482000C6F80080FEF776FD074604E0FEF772FD4D
:10483000C01B022823D828688007F7D420780007F7
:104840002CD57948A169D9B1C0F80090FEF762FD76
:10485000074604E0FEF75EFDC01B02280FD8686A19
:104860008007F7D571484FF4FA510068B0FBF1F0BA
:10487000009000BF0098411E0091FAD20EE080E047
:10488000C0F80080FEF746FD074604E0FEF742FD53
:10489000C01B022875D8686A8007F7D420784007C3
:1048A00060D5E8690027C00008D4E86940F080506E
:1048B000E861E869012700F0805000905C480168D9
:1048C000C90513D40168834641F480710160FEF785
:1048D00021FD824606E000BFFEF71CFDA0EB0A00AA
:1048E00064284ED8DBF80000C005F5D5E068012843
:1048F0000AD008B1052813D0286A20F001002862E8
:10490000286A20F0040002E0286A40F001002862D2
:10491000E06841F2883B98B1FEF7FCFC82460BE070
:10492000286A40F004002862EEE700BFFEF7F2FCC0
:10493000A0EB0A0159455AD8286A8007F6D50CE041
:10494000FEF7E8FC824605E0FEF7E4FCA0EB0A0176
:1049500059454CD8286A8007F6D41FB1E86920F081
:104960008050E861E06988B36968C1F38101022978
:1049700044D00228C6F8608004D0FEF7CBFC044681
:1049800038E034E0FEF7C6FC074604E0FEF7C2FC60
:10499000C01B02282BD828688001F7D4206AB0F504
:1049A000803F05D16868A16820F400300843686042
:1049B000D4E908010843696821F474110843686068
:1049C000C6F86090FEF7A6FC044606E025E000BFAE
:1049D000FEF7A0FC001B022809D828688001F7D543
:1049E0001BE000BFFEF796FC001B022802D9032043
:1049F000BDE8F88F28688001F4D40EE00128F7D0D4
:104A00006868226A00F48031914204D1616A00F43E
:104A10007010884201D00120EAE70020E8E700009A
:104A20000010024000004242800442428000002008
:104A3000007000407047704710B504460068016878
:104A4000C90717D04168C90714D0406840072046FD
:104A500007D5FFF7F0FF21686FF0040048600420DD
:104A600002E0FFF7E7FF012060752068416821F050
:104A70000101416010BD704710B50446006801682F
:104A800089070AD54068800707D52046FFF7F3FF5E
:104A90002068416821F00201416003494FF4003071
:104AA00008600120607510BD140401402DE9F04735
:104AB00091460C4607004AD084B3386840684007E6
:104AC00045D4384601F0EBFC05464FF46161B5FB77
:104AD000F1F201FB125338613C22B3FBF2F3B0FB5D
:104AE000F1F06370B5FBF1F301FB1351B1FBF2F38D
:104AF00002FB13116160182831D31821B0FBF1F8C3
:104B0000B0FBF1F201FB12002070384601F0C0FC4E
:104B1000411C04D0A84202D9461B02E017E04FF026
:104B2000FF36A8EB081000EB4000C0EB001005EBCF
:104B3000C0152946384601F07AFD40B9701C01D0F5
:104B4000711900E03146384601F05DFD10B10120D9
:104B5000BDE8F0874146384601F0BCFB00E020701C
:104B6000B9F1000F0BD0207801F0A9FB207060781C
:104B700001F0A5FB6070207901F0A1FB60600020CE
:104B8000E6E7000070B5040003D0607D002610B198
:104B900005E0012070BD2675204600F043F8022094
:104BA0006075204600F098F9042578BB204601F096
:104BB000E8FB58BB2068416821F007014160A0680C
:104BC00020B11748016821F0010101601448001F5D
:104BD0000168A26821F46071114301606068411CA2
:104BE00004D10120FFF7D0FB80B1401E21688A6804
:104BF00022F00F0242EA10428A602168CA6860F31C
:104C00000F02CA60204601F0D7FB08B16575C0E706
:104C1000E67301206073A0736075002070BD000012
:104C2000306C004008B50068114988421FD1FFF779
:104C3000A5FB1048C16941F00061C161C0690E491E
:104C400000F000600090012008600422114603205B
:104C5000FEF794FE0320FEF783FE0422114629206E
:104C6000FEF78CFEBDE808402920FEF779BE08BD9E
:104C700000280040001002403C0442422DE9FC475D
:104C80004FF0000617460D460400009601960FD01F
:104C900075B1207D01280ED04FF0010984F81490E1
:104CA00002206075002269462046FFF7FFFE20B112
:104CB0000120BDE8FC870220FBE79DF800004FF4CF
:104CC000616148439DF80110C1EB011100EB8100C7
:104CD000019900EB01082878E7B101F0E7FA4FF4F9
:104CE000616100FB01F7687801F0E0FAC0EB0010A9
:104CF00007EB8007287901F0D9FA3918414501D22C
:104D000017480144204601F07EFC70B10420607514
:104D10002675CDE74FF4616148436978C1EB011115
:104D200000EB810069680144E8E72068416821F0F0
:104D3000020141602068016841F0020101600948F8
:104D4000016841F40031016006480830016841F40F
:104D50000031016084F8159026750020A9E7000055
:104D600080510100000401402DE9F0410D4604008E
:104D70003BD0C5B3207D01283AD04FF0010884F81C
:104D8000148002206075E87872B301F08FFAE07346
:104D9000687801F08BFA6073A87801F087FAA07345
:104DA000C2B2617BE07B01F003FC207328702046D7
:104DB00001F075FB4FF46161B0FBF1F1002518299A
:104DC0002DD91822B1FBF2F1A1EB011101EB410148
:104DD000C1EB011100EBC1163146204601F027FC62
:104DE0000427C8B90BE000E004E00120BDE8F08131
:104DF0000220FBE7E07368786073A878CFE720466D
:104E000001F046FB411C0AD0B04208D206490144D9
:104E1000204601F0F8FB10B167752575E5E784F8C9
:104E2000158025750020E1E7805101002DE9F04152
:104E30000D46040024D01DB3207D012823D04FF05F
:104E4000010884F81480022060752878EAB101F026
:104E50002DFA4FF4616100FB01F6687801F026FA43
:104E6000C0EB001006EB8006287901F01FFA351818
:104E70002946204601F0DBFB0026042710BB0FE08B
:104E80000120BDE8F0810220FBE74FF46161484357
:104E90006978C1EB011100EB810069684518E7E70B
:104EA0002068416821F005014160204601F0F0FAD8
:104EB000411C0AD0A84208D206490144204601F00C
:104EC000A2FB10B167752675DAE784F815802675A0
:104ED0000020D6E78051010070B504000AD0206898
:104EE000416821F008014160FEF714FA05464FF4CD
:104EF0007A7608E0012070BDFEF70CFA401BB04244
:104F000001D9032070BD206840680007F4D5002057
:104F100070BD10B5401EB0F1807F01D3012010BDDF
:104F20004FF0E02460610F21601703F051F9002079
:104F3000A06107202061002010BD7047704700006D
:104F400070B590F83C20012A26D0012480F83C401E
:104F5000022280F83D2003685A689D6822F070069E
:104F60000A6832435A600D4B02689A4208D0B2F187
:104F7000804F05D00A4B9A4202D00A4B9A4204D184
:104F8000496825F080031943916080F83D40002175
:104F900080F83C10084670BD022070BD002C014016
:104FA000000400400008004010B5040003D094F84D
:104FB0003D0010B107E0012010BD002084F83C0046
:104FC000204600F01FF8022084F83D00211D2068D3
:104FD00001F0ECFB012084F8460084F83E0084F8E0
:104FE0003F0084F8400084F8410084F8420084F8CF
:104FF000430084F8440084F8450084F83D00002014
:1050000010BD000008B500680B49884212D10B485A
:10501000C16941F00201C161C069042200F00200CF
:10502000009011461D20FEF7A9FCBDE808401D2098
:10503000FEF796BC08BD00000004004000100240CE
:1050400090F83D10012901D001207047022180F81D
:105050003D100168CA6842F00102CA6000680B494D
:10506000884208D0B0F1804F05D00949884202D06B
:105070000849884204D1816801F00701062903D05C
:10508000016841F00101016000207047002C0140DF
:1050900000040040000800400168CA6822F00102D4
:1050A000CA6001680A6A41F211131A4207D10A6AFA
:1050B0009B101A4203D10A6822F001020A60012102
:1050C00080F83D1000207047704770B504460068B6
:1050D00001694FF00005C943890715D4C168C94368
:1050E000890711D4E91E01610120207720688069B9
:1050F0008007204602D0FFF7E7FF04E000F098F8B1
:10510000204600F096F8257720680169C9434907D1
:1051100017D4C168C943490713D46FF00401016172
:10512000022020772068806910F4407F204602D05A
:10513000FFF7CAFF04E000F07BF8204600F079F8A2
:10514000257720680169C943090716D4C168C94396
:10515000090712D46FF0080101610420207720684C
:10516000C0698007204602D0FFF7AEFF04E000F0E0
:105170005FF8204600F05DF8257720680169C94393
:10518000C90617D4C168C943C90613D46FF010010A
:105190000161082020772068C06910F4407F204614
:1051A00002D0FFF791FF04E000F042F8204600F043
:1051B00040F8257720680169C943C90708D1C1684B
:1051C000C943C90704D1891E0161204600F032F8A5
:1051D00020680169C943090609D4C168C9430906A1
:1051E00005D46FF0800101612046FFF7A6FE20681C
:1051F0000169C943490609D4C168C943490605D4B0
:105200006FF040010161204600F040F8206801691C
:10521000C94389060BD4C168C943890607D46FF016
:10522000200101612046BDE87040FFF787BE70BDD8
:1052300070477047704770B5044690F83C000128ED
:1052400012D0012584F83C50022084F83D0020460D
:1052500001F0ECFA01004FF0000007D084F83D5057
:1052600084F83C00012070BD022070BD2168CA682E
:1052700022F04002CA602168CA6822F48042CA60F3
:1052800084F83D5084F83C00002070BD704770B534
:10529000040004D094F83D00002510B106E0012080
:1052A00070BD84F83C50204600F022F8242084F899
:1052B0003D002068C16821F40051C160204601F022
:1052C0001BFB2068016921F490410161206841695C
:1052D00021F02A0141612068C16841F40051C16098
:1052E0002564202084F83D0084F83E00002070BD35
:1052F00030B585B0002400940194029403940068B2
:105300001449884224D11448816941F48041816163
:10531000816901F480410491816941F00401816156
:1053200080690E4D00F0040004904FF4007000906E
:10533000022001900320039069462846FDF7E8FE0D
:105340002815CDE90004694628460294FDF7E0FEE1
:1053500005B030BD00380140001002400008014097
:10536000FEE7000010B54DA002F0E0FE5BA002F0E9
:10537000DDFE6AA002F0DAFE58A002F0D7FE57A0C8
:1053800002F0D4FE754802F0D1FE754802F0CEFE60
:10539000744802F0CBFE744802F0C8FE4FA002F041
:1053A000C5FE724802F0C2FE714802F0BFFE71A055
:1053B00002F0BCFE7F4802F0B9FE48A002F0B6FE43
:1053C0007DA002F0B3FE8CA002F0B0FE43A002F07C
:1053D000ADFE994802F0AAFE66A002F0A7FE97482B
:1053E00002F0A4FE3DA002F0A1FE954802F09EFE50
:1053F000944802F09BFE944802F098FE934802F015
:1054000095FE934802F092FE924802F08FFE33A080
:1054100002F08CFE31A002F089FE8FA002F086FE21
:105420002EA002F083FE2DA002F080FE9AA002F0D2
:105430007DFEA9A002F07AFE28A002F077FEB64811
:1054400002F074FEB54802F071FEB54802F06EFE3F
:1054500048A002F06BFEB34802F068FE1FA002F005
:1054600065FEB1A002F062FE1CA002F05FFEBE4825
:1054700002F05CFEBD4802F059FEBD4802F056FE47
:1054800016A002F053FE3BA002F050FEB94802F015
:105490004DFEBDE8104011A002F048BE0A7C2D2D43
:1054A0002D2D2D2D2D2D2D2D2D2D2D2D2D2D2D2D2C
:1054B0002D2D2D2D2D2D2D2D2D2D2D2D2D2D2D2D1C
:1054C0002D2D2D2D2D2D2D2D2D2D2D2D2D2D2D2D0C
:1054D0002D2D2D2D2D2D2D2D2D7C0A007C2D2D2DAE
:1054E0002D2D2D2D2D2D2D2D2D2D2D2D2D2D2D2DEC
:1054F0002D2D2D2D2D2D2D2D2D2D2D2D2D2D2D2DDC
:105500002D2D2D2D2D2D2D2D2D2D2D2D2D2D2D2DCB
:105510002D2D2D2D2D2D2D2D7C0A00007C2042615E
:1055200073696320636F6D6D616E6473202020204A
:10553000202020202020202020202020202020206B
:10554000202020202020202020202020202020205B
:1055500020202020202020207C0A000088920008A3
:105560000C9100087C8F0008CC9400087894000807
:10557000048C00087C2D2D2D2D2D20202020202076
:10558000202020202020202020202020202020201B
:10559000202020202020202020202020202020200B
:1055A00020202020202020202020202020202020FB
:1055B0007C0A0000349200087C20283230303020F1
:1055C0003C2079656172203C20323130302920281E
:1055D00031203C206D6F6E746820203C20313229D0
:1055E000202831203C20646174652020203C203339
:1055F000312920207C0A00007C202830203C2068B3
:105600006F7572203C203233292020202020202852
:1056100030203C206D696E757465203C2035392939
:10562000202830203C207365636F6E64203C203559
:10563000392920207C0A0000C4900008F48F00085B
:105640000C940008449300085C910008B093000893
:10565000E49200085C9000087C20416476616E63EF
:10566000656420636F6D6D616E647320202020205F
:10567000202020202020202020202020202020202A
:10568000202020202020202020202020202020201A
:10569000202020207C0A00007C20313D4D6F6E646C
:1056A0006179203B20323D54756573646179203BFC
:1056B00020333D5765646E6573646179203B203407
:1056C0003D5468757273646179203B20202020204E
:1056D000202020207C0A00007C20353D4672696431
:1056E0006179203B20363D53617475726461792085
:1056F0003B20373D53756E646179202020202020A7
:105700002020202020202020202020202020202099
:10571000202020207C0A0000788D0008FC8C0008E6
:10572000748C0008189500087C20593D59656172F9
:10573000203B204D3D4D6F6E7468203B2032573D1D
:1057400054776F207765656B73203B20573D576515
:10575000656B203B20443D4461792020202020209F
:10576000202020207C0A0000FC8E00087C8E00088F
:10577000F48D0008C891000801684A69D2435205B7
:105780000FD46FF480624A61002140F8301F20225C
:1057900042738173026942F00402026101730120C5
:1057A00070470020704700002DE9F84F0446C06A9A
:1057B0001E4693460D4621680A6842F480620A60DC
:1057C000082807D0012805D010F5803F02D0206BB3
:1057D000112804D12068016841F4807101604FF004
:1057E00001195B46002249462046009600F0C6F8A3
:1057F0004FF4007840B120680068C00501D5C4F8B6
:1058000040800320BDE8F88F2069DFF884A0B0F560
:10581000804F0FD00620216800EAD51747F0F0002E
:10582000086133465A460AF10601204600F0DAF8CC
:1058300058BB03E0E8B240F001001CE02168E8B288
:10584000086133465A465146204600F0CBF8E0B98D
:105850002068416981690091016841F480710160AB
:105860005B46002249462046009600F087F8002853
:10587000C1D147F0F1002168086133465A465146CC
:10588000204600F0AFF80028BCD00120BAE70000A5
:1058900002000100F8B50446C06A1E460D461746D0
:1058A000082807D0012805D010F5803F02D0206BD2
:1058B000122804D12068016841F480710160134608
:1058C00000224FF001112046009600F057F840B139
:1058D00020680068C00502D54FF4007020640320E2
:1058E000F8BD2069B0F5804F0ED00620216800EA8F
:1058F000D51040F0F000086133463A460B49204687
:1059000000F070F878B902E005F0FE0000E0E8B2BF
:1059100021680861054933463A46891F204600F050
:1059200061F80028DCD00120F8BD0000080001006B
:1059300070B516460D4604460DE02046FFF71CFFE5
:1059400008B1012070BD681C05D0FDF7E3FC801B89
:10595000A84207D835B120684069C0434007ECD45D
:10596000002070BD002044F8300F20216173A07327
:10597000216941F0200121612073E2E72DE9F04720
:105980001E4690460D460446C1F30747DDF82090B9
:1059900008E0701C06D0FDF7BDFCA0EB0900B0428A
:1059A0000FD876B12068012F18D0806925EA000051
:1059B0000004000C14D000214145EAD00020BDE8CD
:1059C000F087002044F8300F20216173A073216913
:1059D00041F02001216120730120F0E74069E5E7F3
:1059E0000121E9E72DE9F0479A4691460E46044623
:1059F00000254FF02008C1F3074725E020684069E3
:105A0000C043400514D42068016841F4007101606E
:105A100021686FF480604861256384F83D8084F8D4
:105A20003E50206C40F00400206484F83C501FE09D
:105A3000B9F1FF3F08D0FDF76DFCA0EB0A01494525
:105A40000CD8B9F1000F09D02068012F13D080695C
:105A500026EA00000004000C0BD0CFE744F8305FCA
:105A600084F80D80A573206940F020002061257323
:105A70000120BDE8F0874069EAE72DE9F041002503
:105A800090460E460446202717E04069C043C006F2
:105A90000CD454F8301B6FF01000486144F81059D2
:105AA0006777A577206A2062257717E0FDF732FC3B
:105AB000A0EB0800B04208D83EB120684169C94354
:105AC0004906E2D40020BDE8F08144F8305F6773F6
:105AD000A573206940F02000206125730120F2E7C2
